{"abi":[{"type":"constructor","inputs":[{"name":"_initialValue","type":"uint256","internalType":"uint256"}],"stateMutability":"nonpayable"},{"type":"function","name":"getValue","inputs":[],"outputs":[{"name":"","type":"uint256","internalType":"uint256"}],"stateMutability":"view"},{"type":"function","name":"setValue","inputs":[{"name":"_value","type":"uint256","internalType":"uint256"}],"outputs":[],"stateMutability":"nonpayable"},{"type":"function","name":"storedValue","inputs":[],"outputs":[{"name":"","type":"uint256","internalType":"uint256"}],"stateMutability":"view"},{"type":"event","name":"ValueChanged","inputs":[{"name":"newValue","type":"uint256","indexed":false,"internalType":"uint256"},{"name":"changedBy","type":"address","indexed":true,"internalType":"address"}],"anonymous":false}],"bytecode":{"object":"0x6080604052348015600e575f5ffd5b5060405161017e38038061017e833981016040819052602b916069565b5f81905560405181815233907fc53a6612a7428e1fc89cb87169d69d64eaefe94f5b45d43f80f1ad9d7065d2c89060200160405180910390a250607f565b5f602082840312156078575f5ffd5b5051919050565b60f38061008b5f395ff3fe6080604052348015600e575f5ffd5b5060043610603a575f3560e01c80632096525514603e578063552410771460535780636d619daa146064575b5f5ffd5b5f545b60405190815260200160405180910390f35b6062605e36600460a7565b606b565b005b60415f5481565b5f81905560405181815233907fc53a6612a7428e1fc89cb87169d69d64eaefe94f5b45d43f80f1ad9d7065d2c89060200160405180910390a250565b5f6020828403121560b6575f5ffd5b503591905056fea26469706673582212200e65969ecf17f9716791b0fc890eba3dca7dd82a0831a447250e6149f46e649064736f6c634300081c0033","linkReferences":{}},"methodIdentifiers":{"getValue()":"20965255","setValue(uint256)":"55241077","storedValue()":"6d619daa"},"id":23}